:020000040000FA
:10000000CBEF05F01200FFFF04EF0CF01200FFFF32
:10001000FFFFFFFFFFFFFFFF0CEF0CF01200FFFFE1
:1000200021110402426F6F746C6F61646572205617
:10003000322E303400FFFFFFFFFFFFFFFFFFFFFF07
:100040000100DC130000E0010000040000000101D9
:100050001E0E006F016B7C0E026F036B846BC76911
:10006000C869C969C66B1200D9CFE6FFE1CFD9FFD5
:10007000020EE1260101845121E1040108BF1DD0D7
:100080000101D76B400EE66E040EE66E010EE66EC1
:10009000A8EC07F0E552E552E5520101010E846F2C
:1000A000DF6A400EDF5C09E2DF50EA6A440FE96E66
:1000B000010EEA22EF6ADF2AF4D7C4D1010104510C
:1000C000800A01E1A0D18C0A01E190D1060A01E188
:1000D00072D1020A01E15AD10F0A01E11FD1010ACE
:1000E00001E114D1030A01E1AFD0010A01E19AD084
:1000F000070A01E17FD0010A3AE0120A01E08FD13C
:100100000101100E446F140EE66EE66A450EE66EAF
:10011000010EE66E200EE66EE66A30DA146E060E0A
:10012000E15E14502C0E8014E840E8403F0BE76E6F
:10013000010EE7CFDBFFF00E01014517010EDB508A
:100140002B0A010145130F0E0101461704010CBFD4
:100150000DD0400EE66E440EE66E010EE66E78ECB3
:1001600007F0E552E552E5520101846B6BD10101C4
:10017000020E446F01013A0E456F0101010E466FF8
:100180000101010E476F0101486B180E496F4A6B60
:100190004B6B01C14CF102C14DF103C14EF1180E80
:1001A00001014D5F000E01014E5B01014F6B01012A
:1001B000030E506F0101F80E516F7F0E526F536B9B
:1001C000546B0101080E556F566B576B586B01014C
:1001D000596904010CBF0DD0400EE66E440EE66E68
:1001E000010EE66E78EC07F0E552E552E5520101AA
:1001F000846B28D1010105510AE101011F0E006F36
:100200000101F80E016F7F0E026F036B08D0010130
:100210001E0E006F0101016B7C0E026F036B01016A
:10022000846B10D10101060E856F010100290101C7
:10023000855D07E2040010D9CCEC08F00101852BA4
:10024000F4D70101846BFED0000E0101055D180E8C
:100250000659000E0759000E085955E3FF0E01011B
:10026000055D7F0E0659000E0759000E08594BE236
:10027000E8680101C71905E1E868C81902E1E86802
:10028000C91906E105C1C7F106C1C8F107C1C9F125
:10029000C70EE96E010EEA6EEE500101051908E184
:1002A000EE500101061904E1EE500101071900E1C9
:1002B0002AE1DF6A01010951DF5C25E23A0E010102
:1002C000D8800955DF24EA6A0A0FE96E010EEA2296
:1002D000EF50E66E0101C651EA6A860FE96E010E23
:1002E000EA22E552E750EF6E0101C62B0101C72B50
:1002F000000EC823000EC9233A0E0101C65D01E1BC
:10030000BED8DF2AD7D70101846B9CD0B8D80101B1
:10031000C769C869C9690101846B94D00101070EDE
:10032000446F05C145F106C146F107C147F108C157
:1003300048F109C149F105C1F6FF06C1F7FF07C140
:10034000F8FFDF6A01010951DF5C0FE209003A0E94
:100350000101D8800955DF24EA6A4A0FE96E010ECF
:10036000EA22F5CFEFFFDF2AEDD704010CBF0DD055
:10037000400EE66E440EE66E010EE66E78EC07F077
:10038000E552E552E5520101846B5CD0A50EE66EA4
:10039000FF0EE66EE66AEDEC07F0E552E552E55237
:1003A0006592656AC40EE66E090EE66EAAD8E5523D
:1003B000E552FF0047D0E668FE0EE66EE66AEDEC19
:1003C00007F0E552E552E5520A0EE66EE66A99D864
:1003D000E552E552E668FF0EE66EE66AEDEC07F0E0
:1003E000E552E552E5520101846B2CD0A50EE66E74
:1003F000FF0EE66EE66AEDEC07F0E552E552E552D7
:100400000101846B1FD06592656AE80EE66E030EEB
:10041000E66E77D8E552E55200EF0CF013D00101FB
:10042000FE0E446F04010CBF0DD0400EE66E440E6C
:10043000E66E010EE66E78EC07F0E552E552E55205
:100440000101846B020EE15C02E2E16AE552E16EB9
:10045000E552E7CFD9FF1200F66A85C1F7FFF86AC7
:10046000D890F736F836F736F836140EA66EF29EA8
:10047000550EA76EAA0EA76EA682A6941200D9CF1B
:10048000E6FFE1CFD9FFE652DF6A0101C65100085D
:1004900032E2C6C114F0156A166A14500101C75D34
:1004A000F66E15500101C859F76E16500101C95971
:1004B000F86EDF50EA6A860FE96E010EEA22EF500D
:1004C000F56E0D00DF2ADF50EA6A860FE96E010E35
:1004D000EA22EF50F56E0C00DF2A240EA66EF29E83
:1004E000550EA76EAA0EA76EA682020E0101C65D6A
:1004F0000101C66FCAD7A694E552E552E7CFD9FFEE
:100500001200D9CFE6FFE1CFD9FF020EE126DE6A65
:10051000DD6ADECF14F0DDCF15F0040E086E096A37
:10052000FD0EDBCF0DF0FE0EDBCF0EF0B1EC09F0CF
:1005300006C016F007C017F015501718E8AE02D025
:10054000173404D01650145C175015580DE2E868A3
:10055000E85005E0E80600D000D000D0F9D7DF2A47
:10056000010E01E3DB2AD5D7020EE15C02E2E16A6B
:10057000E552E16EE552E7CFD9FF1200D9CFE6FF91
:10058000E1CFD9FF020EE126DE6ADD6ADECF14F08C
:10059000DDCF15F0F90EDBCF16F0FA0EDBCF17F03A
:1005A0001650145C1750155821E2FD0EDBCF14F0E5
:1005B000FE0EDBCF15F0DE501424F66EDD50152054
:1005C000F76EF86A0800FB0EDBCF14F0FC0EDBCFF1
:1005D00015F0DE501424E96EDD501520EA6EF5CFDB
:1005E000EFFFDF2A010E01E3DB2AD0D7020EE15C28
:1005F00002E2E16AE552E16EE552E7CFD9FF12006F
:100600007DD9E652645032E16296040100513C0B00
:10061000E842E8420D0828E1180E021923E1040E11
:10062000031920E1100E026F040E036FDF6ADF5022
:10063000146E156A080E145C000E155813E2DF5094
:10064000EA6A180FE96E040EEA22EF50E66EDF50F8
:10065000EA6A100FE96E040EEA22E552E750EF6EE7
:10066000DF2AE5D70ED80AD03FD808D0040E645C44
:1006700003E1629650D802D0000E01D0010EE5527F
:1006800042D13CD9E652040104BF046B0101D26B94
:10069000CA6BCB6BD06BD16B8FEC04F0DF6ADF5091
:1006A000146E156A010E145C000E15581AE2010151
:1006B000CB5117E1F76ADF34FE0BF736F66E600EAA
:1006C000F626130EF7220900F5CF14F00800F5CF37
:1006D00015F004D015C0FAFF1450F96EFBDFDF2AC5
:1006E000DED7B7D8E5520FD1020E0101CA5D0EE187
:1006F00084D80401180E026F040E036F080E016FF8
:1007000000BD02D0C80E05D0880E03D0DBD8E7D8D4
:100710008C0E006F1200040E0101DC5D0CE112C4AE
:1007200038FF0F013851000803E20101050E02D025
:100730000101030EDC6F0101CA0510E111D8020EA0
:100740000101D25D03E10401840E06D0040104BD61
:1007500002D0C80E01D0880E046F120062EF04F0C0
:10076000CDD8020EE1260101080ED05D000ED15950
:100770000DE2D0C1DEFFD1C1DDFFD25102E1010E99
:1007800003D0D20506E1020ED26F03D0080EDE6E52
:10079000DD6A040104930491010EDB500413DFCFE2
:1007A00005F4000EDB500101D05F010EDB50D15B80
:1007B000180ECE6F040ECF6F0101DDA30CD097D8B9
:1007C00015E0CCC1F6FFCDC1F7FF0800F5507FD88A
:1007D000F6E2DB06F4D78BD809E0CCC1E9FFCDC146
:1007E000EAFFEF5074D8F7E2DB06F5D7020EE15CC2
:1007F00002E2E16AE552E16E86D080D8020EE1267F
:10080000030E04010015E76E010EE7CFDBFF01C404
:10081000DFFFDE500101D027DD50D123180ECC6F51
:10082000040ECD6F64D80EE0CCC1E9FFCDC1EAFF64
:10083000EF50CEC1E9FFCFC1EAFFEF6E68D8F2E218
:10084000DB06F0D7020EE15C02E2E16AE552E16EFE
:100850005AD065980101CB5105E141D8840E006F53
:1008600004011DD0040110AF1CD00101D0510401BE
:10087000165D0101D1510401175904E216C4D0F1EB
:1008800017C4D1F16DDF0101010ECA6F28D8800EA7
:10089000006F0401180E066F040E076FC80E046F78
:1008A00012000101020ECA6F0401056BC80E046F2D
:1008B0000401080E016F180E026F040E036FC80EBC
:1008C000006F12000101CA6B0401046B1200CEC15B
:1008D000E9FFCFC1EAFFEF6E010187EF04F00401E9
:1008E000080E016F100E026F040E036F1200D9CFB5
:1008F000E9FFDACFEAFFEE50ED101200D9CFE6FFA4
:10090000E1CFD9FF1200E552E7CFD9FF1200CE2B7D
:10091000000ECF23CC2BCD23DF06010E12000401E5
:100920001051600BE842E842E842E842E842000920
:1009300001E012001151070A40E00B0A3EE0070AED
:1009400033E0010A23E00B0A1FE0020A1DE0030A5C
:1009500019E0080A10E0010A0CE00F0A08E0030A97
:1009600001E0120010D90101040EDC6F1200DEEF6D
:1009700004F015EF05F007D90101DE0ECC6F010E72
:10098000CD6F0CD030EF05F060EF05F000D901011C
:10099000CC6FCD6BDF0ECC27010ECD230101DD9393
:1009A0000101010ED06F1200F2D8EA6ADF0FE96E82
:1009B000010EEA2212C4EFFF12001200800E0401A1
:1009C000105D32E11351030A1FE0010A0AE0030A35
:1009D00029E1D9D80101B60ECC6F120ECD6F120EDF
:1009E0001ED0B0D8560EF626130EBED8020E010148
:1009F000F76ACC25F66ECD51F7220900F5CFD0F17C
:100A00000A00F5CFD1F10ED09DD85A0EF626130E5E
:100A1000ABD8CCC1F6FFCDC1F7FF0800F5500101FE
:100A2000D06FD16B0101DD831200ADD80F0EE66EE1
:100A3000270EE66E0F0EA0D8010EE66EDF0EE66EF4
:100A4000010E9AD812C4DEF10401125104E1010131
:100A5000050EDC6F12000101060EDC6F62EF07F07D
:100A60000401186B196B040110511F0B020A0DE0F1
:100A7000030A09E0010A16E186D80101DDA112D0BE
:100A8000040118830FD07FD80DD050D801E0010E9B
:100A900062D8CEC1E9FFEA6EEF50040B03E0040117
:100AA000010E186F0101CB050AE10101180ECC6F90
:100AB000040ECD6F0101DD930101020ED06F120013
:100AC000040112050EE110511F0B00090AE15BD869
:100AD000030E0401115D03E10101DD8102D001017A
:100AE000DD910401125121E110511F0B02081DE19B
:100AF00014510F0B000919E019D801E0010E2BD891
:100B0000030E0401115D02E1840E03D014AF07D07F
:100B1000400ECEC1E9FFCFC1EAFFEF6E1200880E92
:100B2000CEC1E9FFCFC1EAFFEF6E120030D80F0B44
:100B3000080DF350156A000F146E040E152214519F
:100B4000800B120020D804011251F66EF76AD8907B
:100B5000F636F7361200040DF35001011424CE6F5F
:100B6000000E1520CF6F1200F7220900F5CFCCF14F
:100B70000A00F5CFCDF11200E66E46EC09F0E55221
:100B8000E552E55212000101010ECB6F1200FBDFAE
:100B90000401145112001DEE00F02DEE00F0F86A71
:100BA000019C02D8FED71200D9CFE6FFE1CFD9FFD2
:100BB000060EE1261DEE00F02DEE00F0F86A67D873
:100BC00001D92CEC08F00101D76BFF0EE66EE66A46
:100BD0000AEC08F0E552E552E76E010EE7CFDBFFC5
:100BE000010EDB50A50817E10101010ED76FFE0EC3
:100BF000E66EE66A0AEC08F0E552E552E76E010E91
:100C0000E7CFDBFF010EDB505A0803E0010E801432
:100C100002E100EF0CF00101D86BD96BDA6BDB6BF2
:100C2000040068D80101D7511DE00101D82B000E46
:100C3000D923DA23DB23D880A00E0101D855860EF4
:100C4000D955010EDA55000EDB550BE26592656A47
:100C5000640EE66EE66A81EC02F0E552E55200EFC2
:100C60000CF001D04BD8060E0101DC5D05E16550AA
:100C7000020B02E134EC00F0D3D7060EE15C02E295
:100C8000E16AE552E16EE552E7CFD9FF1200600E4E
:100C9000D36E9B8C0101580ED36F020ED46FD3C15B
:100CA00014F0D4C115F0D307000ED45B1450151006
:100CB000F6E165A609D06592656A640EE66EE66A9D
:100CC00081EC02F0E552E5520F01140E396F01017B
:100CD000DC6B0101DD6B0101DE6B27EC00F0010133
:100CE000D56BD66B810E8B163C0E94160F01486B9C
:100CF000496B1200B4EC08F0CCEF08F0D9CFE6FF56
:100D0000E1CFD9FF100EE126DE6ADD6A020EDB6A52
:100D1000030EDB6A040EDB6A050EDB6A060EDB6A75
:100D2000070EDB6A080EDB6A090EDB6A010EF36E42
:100D30000A0EF3CFDBFF0B0EDB6A0C0EDB6A0D0E27
:100D4000DB6A010EF36E0E0EF3CFDBFF0F0EDB6AD4
:100D50000101D551D61104E1200ED56F4E0ED66F8C
:100D6000D507000ED65B060E0101DC5D02E28B8228
:100D70008B80060EDC5D1CE10101D551D61118E116
:100D80000101E02B070EE017E051020DD950F324CA
:100D9000E96EDA50F420EA6EEE50ED1002E08B823C
:100DA00001D08B928B50020B02E08B9001D08B8094
:100DB000100EE15C02E2E16AE552E16EE552E7CF36
:100DC000D9FF1200D9CFE6FF030EE1260F011D0E59
:100DD000486F2D0E9212810E8B6E3C0E946E030E98
:100DE000E15C02E2E16AE552E16EE552E7CFD9FF4C
:100DF0001200040110511F0B010801E012001451F0
:100E000001E01200060E115D24E11351230A1FE0D8
:100E1000010A0DE0030A1BE1DCD80101DE0505E152
:100E20000101DA0ECC6F120ECD6F090E0DD0D1D8A4
:100E30000101DE0505E10101390ECC6F130ECD6F06
:100E40000101DE0504E11D0E0101D06FD16B01012E
:100E5000DD8304011051600BE842E842E842E842B9
:100E6000E842010801E0120011510B0A25E0080ACE
:100E700017E0090A11E0080A09E00B0A05E0080A70
:100E800001E0120060EF07F061EF07F0A2D8010166
:100E9000E40ECC6F010E09D09CD813C4E4F112000B
:100EA00098D80101E50ECC6F010ECD6F0101DD93E5
:100EB0000101010ED06F12008CD812C4E5F11200AE
:100EC000120012000101E66B0F011E0E276F0401D4
:100ED000400E096F200E0A6F040E0B6F880E086F0C
:100EE0000401600E0E6F040E0F6F400E0C6F1200A7
:100EF000D9CFE6FFE1CFD9FFE652FC0EDB50400828
:100F000005E2400EF36EFC0EF3CFDBFFDF6AFC0E52
:100F1000DB50DF5C0FE2DF5050D8EF50E66EDF5061
:100F2000EA6A600FE96E040EEA22E552E750EF6EBE
:100F3000DF2AEDD7FC0EDBCF0DF4400E04010C17B9
:100F40000C7D880E0C13E552E552E7CFD9FF120055
:100F5000D9CFE6FFE1CFD9FF0101E66B040108BF5D
:100F600026D0FC0EDBCF14F00951D880145403E2D4
:100F7000FC0E09C4DBFF0101E66BFC0EDB50E65DF5
:100F80000FE2E651EA6A200FE96E040EEA22EF5002
:100F9000E66EE65112D8E552E750EF6EE62BEDD73C
:100FA0000401400E096F0817087D880E081301011F
:100FB000E651E552E7CFD9FF1200E76EFD0EDBCF19
:100FC000E9FFFE0EDBCFEAFFE750E926000EEA223A
:100FD00012000101020ECB6F1200C1D8020EB8D868
:100FE0001550DF6EACD8010EA2D8DFCFE6FF86D851
:100FF000E552010E97D8FC0E95D858D80B0EE66E28
:1010000081EC02F0E552020EE15C02E2E16AE55297
:10101000E16E84D0A4D8030E9BD8156A010E14C0CB
:10102000DBFF8DD8020E83D8010E7CD8020E7AD851
:1010300038D8A10EE66E62D8E552E66A3CD8E55291
:10104000DF6E34D8DF50146E030EE15C02E2E16A19
:10105000E552E16E145062D09388938A280EC66ED2
:10106000C56A640EC86EC78CC78E9E96A196120084
:101070000101E769E869C750040B01E0010E146E35
:101080001F0EC514141007E0E707000EE85BE751D8
:10109000E811F1E10A0C000C3CD8C580DF50E552A4
:1010A0003DD037D8C582DF50E55238D032D8C5841C
:1010B000DF50E55233D053D8020EE126D9DFDF12DC
:1010C000C586D6DFDF12010EC9CFDBFFD1DFDF120D
:1010D000DF5002E0010EDB68FE0EDB5002E0C59A35
:1010E00001D0C58AC588010EDB50146E020EE15C8A
:1010F00002E2E16AE552E16E145010D00AD8FE0E09
:10110000DB50C96EC550400B400A01E0010EE552AC
:1011100005D025D8E652ACDFDF6E1200E552E7CFEE
:10112000D9FF1200DBCFE6FFE9DFE552120014C061
:10113000DBFFB2DFA00EE66EE1DFE5521200FF0E2C
:10114000E76EFD0EDBCF14F0E7501416156A12009F
:10115000E126FE0EDBCF15F015C014F01200D9CF3A
:10116000E6FFE1CFD9FF120065A60ED80101DC052C
:101170000AE165BA08D0626A0F01366B368136899A
:101180000101020EDC6F1200656A0F01366B658685
:101190000101010EDC6F12000101DC5101E11200BE
:1011A00062B426D865B2120062B03CD862B817D8D3
:1011B00062BA26D8030E0101DC5D01E212000101D2
:1011C000E96B040EE95D0AE262A608D000EC03F0C8
:1011D000000901E162960101E92BF3D712000F012A
:1011E000368562986582A198A0880300A0981200B5
:1011F00065920F01369562A402D06294FCD712006A
:101200000F0126A10DD0800E0401005D07E1840EC0
:101210000401045D03E104018C0E006F0F012691AF
:10122000629A1200636A626A0F019F0E376F0F01A4
:101230007B0E366F0F01386B0F0EE66E270EE66ED3
:101240000F0EE66E23D8E552E552E5520F01160E59
:10125000266F62A605D0629600D000D00000F9D7B4
:10126000659862EC04F00401080E016F0401100E91
:10127000026F040E036F04018C0E006F0101DD91FB
:101280000101DE6B0101030EDC6F1200D9CFE6FF16
:10129000E1CFD9FFFD0EDBCFE9FFFE0EDBCFEAFF8A
:1012A000FC0EDB5004E0EE6AFC0EDB06F9D7E552DB
:1012B000E7CFD9FF12001201000200000008650705
:1012C000215001000102000109022900010100C0B2
:1012D000320904000002030000000921110100018D
:1012E000221D00070581034000010705010340009E
:1012F0000104030904180358002D0052006900740A
:10130000006500200049006E0063002E002C036978
:1013100000310044006900730070006C00610079C6
:10132000003300200042006F006F0074006C006FFB
:101330000061006400650072000600FF0901A10160
:1013400019012940150026FF0075089540810019F4
:101350000129409100C0C812C812F112F5120D13F4
:10136000F20D09C013F008C012F008500D02F4CFBE
:1013700007F0F3CF06F009500E02F4CF09F0F3CFD7
:1013800008F00D02F3500726F4500822E86A0922FB
:1013900012500E02F3500726F4500822E86A092280
:1013A0000EAED7EF09F01250085E1350095A13AE73
:1013B000000C0D50085E0E50095A000CC00EF36E62
:1013C00000EE00F00E0E01D81200EA6002D0EE6AC4
:1013D000FCD7F350E9601200EE6AFCD70020010050
:1013E000FFFFFFFFFFFFFFFFFFFFFFFFFFFFFFFF0D
:1013F000FFFFFFFFFFFFFFFFFFFFFFFFFFFFFFFFFD
:10140000FFFFFFFFFFFFFFFFFFFFFFFFFFFFFFFFEC
:10141000FFFFFFFFFFFFFFFFFFFFFFFFFFFFFFFFDC
:10180000CDEF3DF01200FFFFE8EF29F01200FFFFDF
:10181000FFFFFFFFFFFFFFFF33EF2AF01200FFFF84
:1018200026621C02693144332044432076322E3232
:10183000382000FFFFFFFFFFFFFFFFFFFFFFFFFF5D
:101840000100B87B0000E401000006000000D9CFD1
:10185000E6FFE1CFD9FF200EE126DF6A400EDF5C14
:1018600009E2DF50EA6A400FE96E020EEA22EF6AEF
:10187000DF2AF4D70201406B00C241F2020100519D
:10188000EE0A02E15CEF1EF0020A02E10EEF1EF02A
:10189000470A02E1F9EF1DF0300A02E1D8EF1DF02E
:1018A000010A02E190EF1DF0030A02E12FEF1DF0A3
:1018B0000E0A02E1C2EF1CF0010A02E18FEF1CF0F8
:1018C000B40A02E133EF1CF0030A02E125EF1CF039
:1018D000320A02E1D6EF1BF0010A02E162EF1BF0CF
:1018E0001A0A02E1F8EF1AF00F0A02E1BBEF1AF050
:1018F000AD0A02E1A7EF1AF03E0A02E19DEF1AF0ED
:10190000070A02E18DEF1AF0010A02E110EF1AF066
:10191000AE0A02E1FFEF19F0050A02E17CEF18F0D0
:10192000010A02E135EF18F00B0A02E1BAEF13F0F9
:10193000010A02E120EF12F0030A02E1F3EF10F0D6
:10194000050A02E1F0EF10F0040A01E11AD3340AAB
:1019500001E1ADD2060A01E154D2030A01E11DD230
:10196000110A01E114D21F0A01E1B3D1010A01E118
:1019700068D10E0A02E0A7EF1EF0020101512F0804
:1019800002E201C242F202010151390A01E135D1FC
:10199000010A01E12CD10F0A01E11DD1010A01E187
:1019A000FDD0030A01E1DBD0010A01E1C9D0070A39
:1019B00001E1C3D0010A01E1AAD0030A01E1A2D0EA
:1019C000010A01E19AD0100A01E18AD0330A72E0DB
:1019D000010A5AE0030A55E0010A44E0110A3CE01A
:1019E000010A01E012D1B50EE66E030EE66E420E5C
:1019F000E66E020EE66EBCEC3BF0E552E552E552B7
:101A0000E552480E006E7A0E016E026A00C0E6FFD3
:101A100001C0E6FF02C0E6FF420EE66E020EE66E71
:101A2000A0EC3BF0036E050EE15E03504F0E006E1E
:101A30007A0E016E026A00C0E6FF01C0E6FF02C036
:101A4000E6FF420EE66E020EE66EA0EC3BF0036E81
:101A5000050EE15E0350F3D00201080E436F020150
:101A6000446BEDD0B50EE66E030EE66E420EE66EEA
:101A7000020EE66EBCEC3BF0E552E552E552E55253
:101A8000DED064C043F2DBD0480E006E7A0E016EE9
:101A9000026A00C0E6FF01C0E6FF02C0E6FF420E98
:101AA000E66E020EE66EDDEC3BF0036E050EE15EC7
:101AB0000350C5D04F0E006E7A0E016E026A00C050
:101AC000E6FF01C0E6FF02C0E6FF420EE66E020E30
:101AD000E66EDDEC3BF0036E050EE15E0350AFD029
:101AE00065C044F2070E0001651504E10201010E14
:101AF000436F02D00201436BA2D060C043F261C0C9
:101B000044F29DD062C043F263C044F298D04F0EBD
:101B1000006E7A0E016E026A00C0E6FF01C0E6FFA9
:101B200002C0E6FF430EE66E020EE66EDDEC3BF011
:101B3000036E050EE15E035082D064C043F27FD095
:101B4000B50EE66E030EE66E420EE66E020EE66E11
:101B5000BCEC3BF0E552E552E552E55270D0D9506D
:101B6000090FE66E000EDA20E66E430EE66E020EF8
:101B7000E66E140EE66E100EE66EE66A28EC32F0A3
:101B8000006E070EE15E0050F3CF40F202014051BB
:101B900002E040C243F30201566B51D0D950090F05
:101BA000E66E000EDA20E66E430EE66E020EE66E7C
:101BB000080EE66E370EE66EE66A28EC32F0006E2E
:101BC000070EE15E0050F3CF40F20201405102E007
:101BD00040C243F334D00F0E000165150201436F7C
:101BE00043C344F23CC345F20301436B28D0010ECA
:101BF0008014010A0201436F22D066C043F268C01C
:101C000044F20201140E456F1AD00201800E406F9B
:101C100040C243F35E0E006E7A0E016E026A00C08F
:101C2000E6FF01C0E6FF02C0E6FF420EE66E020ECE
:101C3000E66EDDEC3BF0036E050EE15E0350C1EF96
:101C40001EF0070E0001651503E1CBEC1EF03FD03E
:101C5000040EE66EE66A750E006E7A0E016E026A7A
:101C600000C0E6FF01C0E6FF02C0E6FF020EE66E1E
:101C7000020EE66E04EC20F0036E070EE15E0350E8
:101C8000000907E00201010E406F40C243F3C1EFBB
:101C90001EF001C268F0D950090FE66E000EDA207E
:101CA000E66E680EE66E000EE66E010EE66E360E0D
:101CB000E66EE66A4BEC32F0006E070EE15E005015
:101CC0000A0EE66EE66AA0EC37F0E552E552C1EF87
:101CD0001EF0070E0001651503E1CBEC1EF055D098
:101CE000D950090FE66E000EDA20E66E0A0EE66E97
:101CF000020EE66E080EE66E370EE66EE66A28EC19
:101D000032F0006E070EE15E0050F3CF40F2080E95
:101D1000E66EE66A790E006E7A0E016E026A00C007
:101D2000E6FF01C0E6FF02C0E6FF0A0EE66E020E05
:101D3000E66E04EC20F0036E070EE15E035000092E
:101D400004E0010E0001651518E0D950090FE66E98
:101D5000000EDA20E66E010EE66E020EE66E080E4A
:101D6000E66E370EE66EE66A4BEC32F0006E070E5A
:101D7000E15E0050F3CF40F203D00201010E406F4C
:101D80000201405102E040C243F3C1EF1EF060C0C7
:101D900041F261C042F2C1EF1EF0030E0001651571
:101DA00003E1CBEC1EF02BD003013D6B05C2E6FF37
:101DB00059EC37F0E552000907E00201810E406F4F
:101DC00040C243F3C1EF1EF001C286F002C287F0A9
:101DD00003C288F004C289F016EC35F00C0EE66EF2
:101DE000E66A720EE66E000EE66E420EE66E020EB9
:101DF000E66E38EC3BF0006E060EE15E0050C1EF7F
:101E00001EF0030E0001651503E1CBEC1EF04DD072
:101E100003013D6B08C2E6FF59EC37F0E5520009BB
:101E200007E00201810E406F40C243F3C1EF1EF094
:101E3000060EE66EE66A010EE66E020EE66E9E0E77
:101E4000E66E000EE66E38EC3BF0006E060EE15ECC
:101E5000005007C2AAF0A7EC35F00001ACA114D0E5
:101E60000201830E406F40C243F30C0EE66EE66A39
:101E7000E66A420EE66E020EE66E86EC3BF0006EFF
:101E8000050EE15E005011D00C0EE66EE66A720E91
:101E9000E66E000EE66E420EE66E020EE66E38EC60
:101EA0003BF0006E060EE15E0050C1EF1EF0070E23
:101EB0000001651503E1CBEC1EF061D003013D6B21
:101EC00005C2E6FF59EC37F0E552000907E00201D0
:101ED000810E406F40C243F3C1EF1EF001C286F095
:101EE00002C287F003C288F004C289F00001865163
:101EF00087118811891107E10201820E406F40C2EB
:101F000043F3C1EF1EF006C2AAF007C207F308C2EE
:101F100008F362EC20F086EC2EF00001ACA107D0B3
:101F20000201830E406F40C243F3C1EF1EF00C0E5E
:101F3000E66EE66ABA0EE66E000EE66E420EE66EDB
:101F4000020EE66E38EC3BF0006E060EE15E0050CD
:101F50000C0EE66EE66A720EE66E000EE66E4E0E31
:101F6000E66E020EE66E38EC3BF0006E060EE15EA9
:101F7000005000C35AF201C35BF202C35CF2C1EF2E
:101F80001EF003013D6B0301446B050E0001651556
:101F900003E1CBEC1EF022D103C2E6FF59EC37F08F
:101FA000E552000907E00201810E406F40C243F391
:101FB000C1EF1EF003013E6B04C2AAF005C207F395
:101FC00006C208F301C286F002C287F00001886BE6
:101FD0000001896B0001865187118811891107E181
:101FE0000201820E406F40C243F3C1EF1EF0E00ECB
:101FF0002B6E2E0E2C6E2D6A2E6A86C026F087C0A0
:1020000027F088C028F089C029F061EC3DF022C09B
:1020100086F023C087F024C088F025C089F062ECE8
:1020200020F086EC2EF0DF6A030EDF5C01E3D4D0F3
:10203000DF50040DF3CFE9FFF4CFEAFF090EE926E4
:10204000030EEA22EE6AEE6AEE6AEE6ADF50040DD3
:10205000F3CFE9FFF4CFEAFF720EE926000EEA2281
:10206000D880000EEE54000EEE54000EEE54000E1A
:10207000EE5401E398D0046A1B0E056E370E066E0F
:102080004B0E076EDF50040DF3CFE9FFF4CFEAFFEC
:10209000BA0EE926000EEA22EECF10F0EECF11F0D4
:1020A000EECF12F0EFCF13F010C026F011C027F0E2
:1020B00012C028F013C029F0F2EC37F027C00CF062
:1020C00028C00DF029C00EF02AC00FF0DF50040D1B
:1020D000F3CFE9FFF4CFEAFF720EE926000EEA2201
:1020E000EECF18F0EECF19F0EECF1AF0EFCF1BF0D5
:1020F00018C026F019C027F01AC028F01BC029F01C
:10210000F2EC37F027C014F028C015F029C016F003
:102110002AC017F014C02CF015C02DF016C02EF0F8
:1021200017C02FF00CC027F00DC028F00EC029F00A
:102130000FC02AF0A4EC38F027C008F028C009F03E
:1021400029C00AF02AC00BF008C02CF009C02DF0FD
:102150000AC02EF00BC02FF004C027F005C028F0F5
:1021600006C029F007C02AF0F7EC38F027C000F0CD
:1021700028C001F029C002F02AC003F0DF50040D8E
:10218000F3CFE9FFF4CFEAFF090EE926030EEA22B6
:1021900000C0EEFF01C0EEFF02C0EEFF03C0EEFF85
:1021A0000301010E3D6FDF50040DF3CFE9FFF4CFC3
:1021B000EAFFBA0EE926000EEA22D880010EEE549C
:1021C000000EEE54000EEE54000EEE5403E2030136
:1021D000010E446FDF2A28D730EC21F0C1EF1EF04A
:1021E0000201020E036F0301010E3D6F0301446BF8
:1021F000050E0001651503E1CBEC1EF01FD103C2F3
:10220000E6FF59EC37F0E552000907E00201810EC4
:10221000406F40C243F3C1EF1EF003013E6B340E2A
:102220000201005D03E10301010E3E6F01C286F071
:1022300002C287F00001886B0001896B00018651A2
:1022400087118811891107E10201820E406F40C297
:1022500043F3C1EF1EF01C0E86C0DBFF1D0E87C0CE
:10226000DBFF1E0E88C0DBFF1F0E89C0DBFFE00E08
:102270002B6E2E0E2C6E2D6A2E6A86C026F087C01D
:1022800027F088C028F089C029F061EC3DF022C019
:1022900086F023C087F024C088F025C089F016ECB2
:1022A00035F0DF6A030EDF5C01E3C6D0DF50040DBA
:1022B000F3CFE9FFF4CFEAFF720EE926000EEA221F
:1022C000D880000EEE54000EEE54000EEE54000EB8
:1022D000EE5403E20301010E446F086A096AFA0E24
:1022E0000A6E430E0B6EDF50040DF3CFE9FFF4CFFF
:1022F000EAFF720EE926000EEA22EECF14F0EECFCE
:1023000015F0EECF16F0EFCF17F014C026F015C081
:1023100027F016C028F017C029F0F2EC37F027C0DC
:1023200010F028C011F029C012F02AC013F02C6A56
:102330002D6A2E6A3F0E2F6E10C027F011C028F0B4
:1023400012C029F013C02AF00EEC38F027C00CF0B0
:1023500028C00DF029C00EF02AC00FF00CC02CF0E0
:102360000DC02DF00EC02EF00FC02FF008C027F0CA
:1023700009C028F00AC029F00BC02AF0F7EC38F0A9
:1023800027C004F028C005F029C006F02AC007F0D5
:102390001C0EDBCF1CF01D0EDBCF1DF01E0EDBCFA5
:1023A0001EF01F0EDBCF1FF01CC026F01DC027F053
:1023B0001EC028F01FC029F0F2EC37F027C018F03B
:1023C00028C019F029C01AF02AC01BF018C02CF040
:1023D00019C02DF01AC02EF01BC02FF004C027F03A
:1023E00005C028F006C029F007C02AF0A4EC38F098
:1023F00027C000F028C001F029C002F02AC003F075
:10240000DF50040DF3CFE9FFF4CFEAFF090EE92610
:10241000030EEA2200C0EEFF01C0EEFF02C0EEFF95
:1024200003C0EEFFDF50EA6A000FE96E030EEA22F6
:10243000010EEF6EDF2A36D730EC21F0C1EF1EF02F
:1024400003013D6B0301446B050E0001651503E1BB
:10245000CBEC1EF08DD108C2E6FF59EC37F0E55207
:10246000000907E00201810E406F40C243F3C1EF53
:102470001EF003013E6B060EE66EE66A010EE66E86
:10248000020EE66E9E0EE66E000EE66E38EC3BF037
:10249000006E060EE15E005007C2AAF0DF6A030E6E
:1024A000DF5C56E2EA6ADF34FE0BEA36E96E9E0E26
:1024B000E926000EEA22EECF00F0EFCF01F0020E87
:1024C000005C000E01580CE2010EDF5206E0DFCF87
:1024D000F3FFE846FE0BF306FCE1E81C0001AA1737
:1024E000EA6ADF34FE0BEA36E96E9E0EE926000E3C
:1024F000EA22EECF00F0EFCF01F0EA6ADF34FE0B04
:10250000EA36E96E980EE926000EEA2200C0EEFFD8
:1025100001C0EDFFDF50040DF3CFE9FFF4CFEAFF78
:10252000720EE926000EEA22EE6AEE6AEE6AEE6AA2
:10253000DF50040DF3CFE9FFF4CFEAFF090EE926DF
:10254000030EEA22EE6AEE6AEE6AEE6ADF2AA7D787
:10255000070E0001AA1507E10201820E406F40C27A
:1025600043F3C1EF1EF0A7EC35F00001ACA10AD097
:102570000201830E406F40C243F30301010E3D6F21
:10258000C1EF1EF0DF6A030EDF5C01E3E7D0DF502E
:10259000040DF3CFE9FFF4CFEAFF090EE926030E9D
:1025A000EA22EE6AEE6AEE6AEE6ADF50EA6A000F2D
:1025B000E96E030EEA22EF6A270E046EF30E056E33
:1025C000320E066E340E076EDF50040DF3CFE9FFB6
:1025D000F4CFEAFF720EE926000EEA22EECF0CF0ED
:1025E000EECF0DF0EECF0EF0EFCF0FF00CC026F0D7
:1025F0000DC027F00EC028F00FC029F0F2EC37F024
:1026000027C008F028C009F029C00AF02AC00BF042
:1026100008C02CF009C02DF00AC02EF00BC02FF01E
:1026200004C027F005C028F006C029F007C02AF032
:10263000F7EC38F027C000F028C001F029C002F004
:102640002AC003F0DF50040DF3CFE9FFF4CFEAFF17
:10265000150EE926030EEA2200C0EEFF01C0EEFFD0
:1026600002C0EEFF03C0EEFFDF50040DF3CFE9FF21
:10267000F4CFEAFF720EE926000EEA22D880000E9F
:10268000EE54000EEE54000EEE54000EEE5464E2D2
:10269000EA6ADF34FE0BEA36E96E980EE926000E90
:1026A000EA22EECF08F0EFCF09F008C028F009C009
:1026B00029F0DDEC37F027C004F028C005F029C070
:1026C00006F02AC007F0DF50040DF3CFE9FFF4CF86
:1026D000EAFF150EE926030EEA22EECF0AF0EECF4E
:1026E0000BF0EECF0CF0EFCF0DF00AC02CF00BC0CA
:1026F0002DF00CC02EF00DC02FF004C027F005C047
:1027000028F006C029F007C02AF0A4EC38F027C052
:1027100000F028C001F029C002F02AC003F0DF5009
:10272000040DF3CFE9FFF4CFEAFF090EE926030E0B
:10273000EA2200C0EEFF01C0EEFF02C0EEFF03C0C0
:10274000EEFFDF50EA6A000FE96E030EEA22020E86
:10275000EF6E0301010E446FDF2A15D730EC21F034
:10276000070E0001AA15070803E10301010E3D6FE2
:10277000C1EF1EF00301010E3D6F0301446B050E16
:102780000001651504E1CBEC1EF033EF18F007C231
:10279000E6FF59EC37F0E552000907E00201810E2F
:1027A000406F40C243F3C1EF1EF003013E6B01C214
:1027B00086F002C287F00001886B0001896B03C2BA
:1027C00003F304C204F305C205F306C206F30301D2
:1027D000000ED8800555000E065501E33AD20001DF
:1027E000865187118811891107E10201820E406F1D
:1027F00040C243F3C1EF1EF01C0E86C0DBFF1D0E6E
:1028000087C0DBFF1E0E88C0DBFF1F0E89C0DBFF09
:10281000E00E2B6E2E0E2C6E2D6A2E6A86C026F0D0
:1028200087C027F088C028F089C029F061EC3DF00E
:1028300022C086F023C087F024C088F025C089F02C
:1028400016EC35F0DF6A030EDF5C01E3AFD0DF503A
:10285000EA6A000FE96E030EEA22010EEF6E086AC3
:10286000096AFA0E0A6E430E0B6EDF50040DF3CFA9
:10287000E9FFF4CFEAFF720EE926000EEA22EECF5E
:1028800014F0EECF15F0EECF16F0EFCF17F014C026
:1028900026F015C027F016C028F017C029F0F2EC7A
:1028A00037F027C010F028C011F029C012F02AC05C
:1028B00013F02C6A2D6A2E6A3F0E2F6E10C027F07F
:1028C00011C028F012C029F013C02AF00EEC38F025
:1028D00027C00CF028C00DF029C00EF02AC00FF060
:1028E0000CC02CF00DC02DF00EC02EF00FC02FF03C
:1028F00008C027F009C028F00AC029F00BC02AF050
:10290000F7EC38F027C004F028C005F029C006F025
:102910002AC007F01C0EDBCF1CF01D0EDBCF1DF014
:102920001E0EDBCF1EF01F0EDBCF1FF01CC026F0EB
:102930001DC027F01EC028F01FC029F0F2EC37F0B0
:1029400027C018F028C019F029C01AF02AC01BF0BF
:1029500018C02CF019C02DF01AC02EF01BC02FF09B
:1029600004C027F005C028F006C029F007C02AF0EF
:10297000A4EC38F027C000F028C001F029C002F014
:102980002AC003F0DF50040DF3CFE9FFF4CFEAFFD4
:10299000090EE926030EEA2200C0EEFF01C0EEFF99
:1029A00002C0EEFF03C0EEFFDF2A4DD7160EDB6A32
:1029B000DF6A030EDF5C46E2D950130F006EDACFF8
:1029C00001F0DF500F010024E96E000E0120EA6ED5
:1029D000EF6AEA6ADF34FE0BEA36E96E9E0EE926FC
:1029E000000EEA22EE6AED6A05C300F006C301F0AC
:1029F000026A036ADF50040DF3CFE9FFF4CFEAFF68
:102A0000720EE926000EEA220050EE5C0150EE58EC
:102A10000250EE580350EE5813E2D950130F006ED7
:102A2000DACF01F0DF500F010024E96E000E012023
:102A3000EA6E010EEF6E010EF36E160EF3CFDBFFA2
:102A4000DF2AB7D70001AA6BDF6A030EDF5C01E360
:102A5000FFD0DF50040DF3CFE9FFF4CFEAFF720E91
:102A6000E926000EEA22D880000EEE54000EEE5445
:102A7000000EEE54000EEE5401E3D1D00301010E1E
:102A8000446F1C0EDBCF0CF01D0EDBCF0DF01E0EC5
:102A9000DBCF0EF01F0EDBCF0FF0D8900F320E32CF
:102AA0000D320C3203C308F004C309F00A6A0B6A42
:102AB000DF50040DF3CFE9FFF4CFEAFF720EE926F1
:102AC000000EEA22EECF04F0EECF05F0EECF06F0D6
:102AD000EFCF07F004C026F005C027F006C028F0AD
:102AE00007C029F008C02BF009C02CF00AC02DF057
:102AF0000BC02EF061EC3DF0225000010C24006E62
:102B0000235000010D20016E245000010E20026EA2
:102B1000255000010F20036E00C026F001C027F0F1
:102B200002C028F003C029F01C0EDBCF2BF01D0ED5
:102B3000DBCF2CF01E0EDBCF2DF01F0EDBCF2EF0E7
:102B400099EC3DF0180E26C0DBFF190E27C0DBFF05
:102B50001A0E28C0DBFF1B0E29C0DBFFD950180F4F
:102B6000E96EDACFEAFF020EEE5C000EEE58000EC0
:102B7000EE58000EEE580DE2EA6ADF34FE0BEA363C
:102B8000E96E9E0EE926000EEA22020EEE6EED6A56
:102B900045D0D950180FE96EDACFEAFFD880FE0E83
:102BA000EE54FF0EEE54000EEE54000EEE540DE205
:102BB000EA6ADF34FE0BEA36E96E9E0EE926000E65
:102BC000EA22FE0EEE6EED6829D0D950180FE96E9C
:102BD000DACFEAFFEE2A000EEE22EE22EE22FE0E01
:102BE000006E0168026A036AD950180FE96EDACFE5
:102BF000EAFFEE500016EE500116EE500216EE50AF
:102C00000316EA6ADF34FE0BEA36E96E9E0EE92609
:102C1000000EEA2200C0EEFF01C0EDFF0CD0EA6A10
:102C2000DF34FE0BEA36E96E9E0EE926000EEA223C
:102C3000020EEE6EED6A010EDF5206E0DFCFF3FF0B
:102C4000E846FE0BF306FCE10001AA13DF2AFDD6DD
:102C5000DBD0DF6A030EDF5C0EE2EA6ADF34FE0BD4
:102C6000EA36E96E9E0EE926000EEA22020EEE6EAC
:102C7000ED6ADF2AEFD7A7EC35F00001ACA107D051
:102C80000201830E406F40C243F3C1EF1EF0DF6AC2
:102C9000030EDF5C01E3B0D0DF50040DF3CFE9FF9A
:102CA000F4CFEAFF720EE926000EEA22EECF04F01E
:102CB000EECF05F0EECF06F0EFCF07F003C300F044
:102CC00004C301F0026A036AE00E2B6E2E0E2C6E16
:102CD0002D6A2E6A00C026F001C027F002C028F03D
:102CE00003C029F061EC3DF022C000F023C001F0E8
:102CF00024C002F025C003F000C026F001C027F078
:102D000002C028F003C029F004C02BF005C02CF04D
:102D100006C02DF007C02EF099EC3DF0180E26C02D
:102D2000DBFF190E27C0DBFF1A0E28C0DBFF1B0ECE
:102D300029C0DBFFD950180FE96EDACFEAFF020E87
:102D4000EE5C000EEE58000EEE58000EEE580DE24E
:102D5000EA6ADF34FE0BEA36E96E9E0EE926000EC3
:102D6000EA22020EEE6EED6A45D0D950180FE96ED8
:102D7000DACFEAFFD880FE0EEE54FF0EEE54000EBE
:102D8000EE54000EEE540DE2EA6ADF34FE0BEA3632
:102D9000E96E9E0EE926000EEA22FE0EEE6EED684A
:102DA00029D0D950180FE96EDACFEAFFEE2A000ECB
:102DB000EE22EE22EE22FE0E006E0168026A036A27
:102DC000D950180FE96EDACFEAFFEE500016EE5038
:102DD0000116EE500216EE500316EA6ADF34FE0BBF
:102DE000EA36E96E9E0EE926000EEA2200C0EEFFEA
:102DF00001C0EDFFDF2A4CD7010EF36E160EF3CFA4
:102E0000DBFF0001070EAA6F160EDB5001E1B4D004
:102E10000001AA5101E1B0D0DF6A030EDF5C1CE2C1
:102E2000EA6ADF34FE0BEA36E96E9E0EE926000EF2
:102E3000EA22EECF00F0EFCF01F0EA6ADF34FE0BBA
:102E4000EA36E96E980EE926000EEA2200C0EEFF8F
:102E500001C0EDFFDF2AE1D7A7EC35F00001ACA1FE
:102E600007D00201830E406F40C243F3C1EF1EF052
:102E7000DF6A030EDF5C01E37FD0D950130F006ED1
:102E8000DACF01F0DF500F010024E96E000E0120BF
:102E9000EA6EEF506FE0DF50040DF3CFE9FFF4CF9F
:102EA000EAFF720EE926000EEA22D880000EEE54E8
:102EB000000EEE54000EEE54000EEE545BE20301E1
:102EC000010E446F270E046EF30E056E320E066E71
:102ED000340E076EDF50040DF3CFE9FFF4CFEAFFA5
:102EE000720EE926000EEA22EECF0CF0EECF0DF0C6
:102EF000EECF0EF0EFCF0FF00CC026F00DC027F094
:102F00000EC028F00FC029F0F2EC37F027C008F00F
:102F100028C009F029C00AF02AC00BF008C02CF024
:102F200009C02DF00AC02EF00BC02FF004C027F00E
:102F300005C028F006C029F007C02AF0F7EC38F0E9
:102F400027C000F028C001F029C002F02AC003F019
:102F5000DF50040DF3CFE9FFF4CFEAFF150EE926A9
:102F6000030EEA2200C0EEFF01C0EEFF02C0EEFF3A
:102F700003C0EEFFDF2A7DD7DF6A030EDF5C71E25C
:102F8000D950130F006EDACF01F0DF500F0100248B
:102F9000E96E000E0120EA6EEF5061E0EA6ADF346C
:102FA000FE0BEA36E96E980EE926000EEA22EECF15
:102FB00008F0EFCF09F008C028F009C029F0DDECD7
:102FC00037F027C004F028C005F029C006F02AC059
:102FD00007F0DF50040DF3CFE9FFF4CFEAFF150E41
:102FE000E926030EEA22EECF0AF0EECF0BF0EECF89
:102FF0000CF0EFCF0DF00AC02CF00BC02DF00CC080
:103000002EF00DC02FF004C027F005C028F006C038
:1030100029F007C02AF0A4EC38F027C000F028C03F
:1030200001F029C002F02AC003F0DF50040DF3CFF5
:10303000E9FFF4CFEAFF090EE926030EEA2200C0F9
:10304000EEFF01C0EEFF02C0EEFF03C0EEFFDF5057
:10305000EA6A000FE96E030EEA22020EEF6EDF2A23
:103060008CD730EC21F0C1EF1EF0050E0001651584
:1030700003E1CBEC1EF03ED00201012903013F6FBA
:10308000690EE66E030EE66E3FC3E6FFE6EC1EF049
:10309000E552E552E552F3CF00F0F4CF01F00050D5
:1030A000011021E10301010E3B6F40C342F245C311
:1030B00043F246C344F247C345F248C346F2030114
:1030C000626B1A0EE66EE66A490EE66E030EE66E57
:1030D0004B0EE66E020EE66E38EC3BF0006E060E0E
:1030E000E15E005007D003013B6B0201900E406F80
:1030F00040C243F3C1EF1EF0050E0001651503E168
:10310000CBEC1EF07AD103013E5112E003013C5199
:1031100007E10201910E406F40C243F3C1EF1EF080
:1031200003018D0EB16F030EB26F41C345F20ED095
:1031300003013B5108E00301690EB16F030EB26F4A
:1031400040C345F203D00301B16BB26B0301B1512F
:10315000B21101E14DD1DF6A030EDF5C01E389D0DA
:10316000DF50040DF3CFE9FFF4CFEAFF210EE9268B
:10317000030EEA22EE6AEE6AEE6AEE6A010EDB6A7E
:10318000030EF36E010EDBCFF4FFF350F45C6FE23D
:10319000010EDBCFE6FF030EDF02F350E552E7241A
:1031A000040D03010301B151F324E96E030103018E
:1031B000B251F420EA6EEECF04F0EECF05F0EECF80
:1031C00006F0EFCF07F0010EDB50040DF3CFE9FF5F
:1031D000F4CFEAFF090EE926030EEA22EECF08F04B
:1031E000EECF09F0EECF0AF0EFCF0BF008C02CF0D5
:1031F00009C02DF00AC02EF00BC02FF004C027F03C
:1032000005C028F006C029F007C02AF0F7EC38F016
:1032100027C000F028C001F029C002F02AC003F046
:10322000DF50040DF3CFE9FFF4CFEAFF210EE926CA
:10323000030EEA22EECF27F0EECF28F0EECF29F0F2
:10324000EFCF2AF000C02CF001C02DF002C02EF00C
:1032500003C02FF00EEC38F02AC0EDFF29C0EDFFBF
:1032600028C0EDFF27C0EFFF010EDB2A89D7DF2A38
:1032700073D725C32CF026C32DF027C32EF028C307
:103280002FF021C327F022C328F023C329F024C341
:103290002AF00EEC38F027C000F028C001F029C059
:1032A00002F02AC003F029C32CF02AC32DF02BC34F
:1032B0002EF02CC32FF000C027F001C028F002C070
:1032C00029F003C02AF00EEC38F00F0E27C0DBFF08
:1032D000100E28C0DBFF110E29C0DBFF120E2AC022
:1032E000DBFF00C342F201C343F202C344F2030115
:1032F0003D5101E177D00301445145E025C32DF351
:1033000026C32EF327C32FF328C330F321C327F09E
:1033100022C328F023C329F024C32AF00F0EDBCFE9
:103320002CF0100EDBCF2DF0110EDBCF2EF0120E95
:10333000DBCF2FF0A4EC38F027C031F328C032F3F4
:1033400029C033F32AC034F325C327F026C328F05D
:1033500027C329F028C32AF00F0EDBCF2CF0100E64
:10336000DBCF2DF0110EDBCF2EF0120EDBCF2FF0C6
:10337000A4EC38F027C035F328C036F329C037F362
:103380002AC038F317D003012D6B2E6B2F6B306BD7
:103390000301FA0E316F7E0E326FAA0E336F3E0EAE
:1033A000346F0301FA0E356F7E0E366FAA0E376F3B
:1033B0003E0E386F0C0EE66EE66A2D0EE66E030EBC
:1033C000E66E460EE66E020EE66E38EC3BF0006EE0
:1033D000060EE15E005005D00201900E406F40C223
:1033E00043F305D00201840E406F40C243F305D081
:1033F0000201900E406F40C243F3C1EF1EF0030183
:10340000140ED8803955000E3A5506E20201920E8C
:10341000406F40C243F302D039C342F2C1EF1EF005
:103420000201015100083AE201C286F00001876BF7
:103430000001886B0001896BB00E2B6E040E2C6EA0
:103440002D6A2E6A86C026F087C027F088C028F033
:1034500089C029F061EC3DF022C086F023C087F0DE
:1034600024C088F025C089F002C2E6FFADEC31F03F
:10347000E55202013D0E426F3D0EE66EE66A000E19
:10348000E66E050EE66E430EE66E020EE66E38EC54
:103490003BF0006E060EE15E00503DD0400E020192
:1034A000025D36E2040E02010203F3500301B36F22
:1034B000B46B0301000ED880B357010EB45703015B
:1034C0003D0ED880B355000EB45504E23D0E030105
:1034D000B36FB46BB3C342F2B3C3E6FFB4C3E6FF4A
:1034E000040E02010203F350016A000F006E050E84
:1034F000012200C0E6FF01C0E6FF430EE66E020EA9
:10350000E66E38EC3BF0026E060EE15E025003D030
:103510000201010E406FC1EF1EF0070E000165159C
:1035200003E1CBEC1EF007D0FF0E0201015D03E1C9
:103530000201B40E426FC1EF1EF080A003D0020161
:10354000416B03D00201010E416FC1EF1EF000017B
:1035500065B103D0CBEC1EF00CD00201406B94CFD0
:1035600041F282CF42F2CACF43F2BACF44F26BC0EB
:1035700045F2C1EF1EF0000165B103D0CBEC1EF0A7
:1035800036D001C242F2020102513C0803E20201BC
:103590003C0E026F02C243F2D950040FE96EDACF3B
:1035A000EAFF030EEE6E020EED6ED950090FE66EC5
:1035B000000EDA20E66E040EDBCFE6FF050EDBCF51
:1035C000E6FF02C2E6FF02010151E66EE66A4BEC3D
:1035D00032F0006E070EE15E0050F3CF40F20201C0
:1035E000405102E040C243F3090EDBCF43F2C9D39E
:1035F000070E0001651502E1CEDB63D001C242F285
:10360000020102513C0803E202013C0E026F02C2B9
:1036100043F2D950060FE96EDACFEAFF440EEE6EA0
:10362000020EED6ED950090FE66E000EDA20E66E3E
:10363000060EDBCFE6FF070EDBCFE6FF02C2E6FF9A
:1036400002010151E66EE66A28EC32F0006E070EC8
:10365000E15E0050F3CF40F20201405102E040C26F
:1036600043F3000165B12DD002010151E66ED9503E
:103670000B0FE96EDACFEAFFE552E750EE6EED6A26
:10368000DF6A02010251DF5C1CE2DF50E76E0B0EC5
:10369000DBCF00F00C0EDBCF01F0E7500026000E70
:1036A00001223F0ED8800054000E015408E2040E9F
:1036B000DF24EA6A400FE96E020EEA22EF68DF2A91
:1036C000E0D75FD3070E0001651502E164DB6DD022
:1036D00001C242F202C243F2020103513B0803E27B
:1036E00002013B0E036FD9500B0F006EDACF01F0D1
:1036F000020E00C0DBFF030E01C0DBFF020EDBCFBA
:10370000E9FF030EDBCFEAFF02C2EFFF010EE76E17
:10371000020EDBCFE9FF030EDBCFEAFFE750E9261D
:10372000000EEA2201C2EFFF440EE66E020EE66EC4
:10373000450EE66E020EE66E03C2E6FF0B0EDBCF11
:10374000E6FF0C0EDBCFE6FF84EC32F0006E070ED6
:10375000E15E0050F3CF40F20201405102E040C26E
:1037600043F3000165B121D0DF6A02010351DF5C40
:103770001CE2DF50E76E0B0EDBCF00F00C0EDBCF50
:1037800001F0E7500026000E01228D0ED880005473
:10379000170E015408E2050EDF24EA6A400FE96EB5
:1037A000020EEA22EF68DF2AE0D7EBD2000165B112
:1037B00002D0F1DA49D001C242F202C243F2020160
:1037C00003513B0803E202013B0E036FD9500B0F7C
:1037D000006EDACF01F0020E00C0DBFF030E01C065
:1037E000DBFF020EDBCFE9FF030EDBCFEAFF02C2F5
:1037F000EFFF010EE76E020EDBCFE9FF030EDBCF1A
:10380000EAFFE750E926000EEA2201C2EFFF440E6C
:10381000E66E020EE66E040EE66E020EE66E03C261
:10382000E6FF0B0EDBCFE6FF0C0EDBCFE6FF45EC31
:1038300033F0006E070EE15E0050F3CF40F202015C
:10384000405102E040C243F39CD204C2E6FF03C2EF
:10385000E6FF02C2E6FF01C2E6FFB9DBE552E55230
:10386000E552E5528ED2020101510CE1E66A180ED2
:10387000E66E180EE66EE66AAADBE552E552E55200
:10388000E5524CD0020101050EE1800EE66E180EE5
:10389000E66E180EE66E010EE66E99DBE552E55215
:1038A000E552E5523BD0020E0201015D0EE1800EB1
:1038B000E66E030EE66E030EE66E010EE66E87DB25
:1038C000E552E552E552E55229D0030E0201015DB1
:1038D0000EE1800EE66E020EE66EA80EE66E030E98
:1038E000E66E75DBE552E552E552E55217D0040E5F
:1038F0000201015D0EE1800EE66E020EE66E230E01
:10390000E66E030EE66E63DBE552E552E552E552E4
:1039100005D00201820E406F40C243F332D2480EFE
:10392000E66E020EE66E420EE66E020EE66E100EB9
:10393000E66E020EE66E050EE66E84EC32F0006E68
:10394000070EE15E0050F3CF40F20201405102E069
:1039500040C243F3020EDF6E120EDF5C0AE2DF505C
:10396000EA6A400FE96E020EEA22CC50EF1ADF2A13
:10397000F3D77ACF6AF07BCF69F06AC048F269C0AA
:1039800049F2FFD10001665102E105DAFAD1010ED8
:10399000DF6E110EDF5C15E2DF50EA6A000FE96EA0
:1039A000020EEA2200016A51EF1ADF28EA6A000FCC
:1039B000E96E020EEA2200016951EF1A020EDF26BB
:1039C000E8D7000EE66E020EE66E140EE66E020EEC
:1039D000E66E080EE66E440EE66EE66A28EC32F0FD
:1039E000006E070EE15E0050000165850201770E52
:1039F000426F000165AB1ED0DF6A080EDF5C1AE281
:103A0000050EDF24EA6A000FE96E020EEA22EFCF0C
:103A100000F0140EDF24EA6A000FE96E020EEA22BB
:103A2000EF50005C05E0000165950201FA0E426F5F
:103A3000DF2AE3D7040E0001651510E003014351AE
:103A40000DE1800EE66E020EE66EAC0EE66E030E23
:103A5000E66EBDDAE552E552E552E55292D17BCFF2
:103A600042F27ACF43F2440EE66E020EE66E450E47
:103A7000E66E020EE66E1E0EE66E020EE66E050E97
:103A8000E66E84EC32F0006E070EE15E0050F3CF7C
:103A900040F2440EE66E020EE66E630EE66E020E15
:103AA000E66E080EE66E600EE66E160EE66E84ECAE
:103AB00032F0006E070EE15E0050F3CF40F2440E8C
:103AC000E66E020EE66E6B0EE66E020EE66E150EEA
:103AD000E66E030EE66E100EE66E84EC32F0006EBB
:103AE000070EE15E0050F3CF40F20201405102E0C8
:103AF00040C243F3040EDF6E400EDF5C0BE2DF508A
:103B0000EA6A400FE96E020EEA2202014351EF1AFF
:103B1000DF2AF2D70201400E446F42C286F031D153
:103B2000DF6A100EDF5C0CE2180EDF24EA6A000F79
:103B3000E96E020EEA2200018651EF1ADF2AF1D760
:103B4000870EE66E000EE66E2C0EE66E020EE66E38
:103B5000100EE66E380EE66E160EE66E84EC32F04F
:103B6000006E070EE15E0050000165830201770ED2
:103B7000426FDF6A100EDF5C1AE2180EDF24EA6A79
:103B8000000FE96E020EEA22EFCF00F02C0EDF24C8
:103B9000EA6A000FE96E020EEA22EF50005C05E0CF
:103BA0000201FA0E426F00016593DF2AE3D7E9D0E4
:103BB000000165A903D0FC0E00016517200E00016D
:103BC000651514E00001665111E0FA0E0001651759
:103BD000030143510BE1E66A180EE66E180EE66E1D
:103BE000E66AF5D9E552E552E552E55265C044F280
:103BF000C8D0A30E0201015D0EE1800E0201025D3C
:103C00000AE1250E0201035D06E1410E0201045D99
:103C100002E10001658165C044F2B3D0070E0001E6
:103C2000651502E1B8D847D0040EE66EE66A750E57
:103C3000006E7A0E016E026A00C0E6FF01C0E6FF68
:103C400002C0E6FF020EE66E020EE66EDDD9036EDE
:103C5000070EE15E0350000906E00201010E406F0D
:103C600040C243F38ED00A0EDB680201015105E128
:103C70005A0EF36E0A0EF3CFDBFFD950090FE66E32
:103C8000000EDA20E66ED9500A0FE66E000EDA203A
:103C9000E66E010EE66EFE0EE66EE66A4BEC32F064
:103CA000006E070EE15E00500A0EE66EE66AA0ECBA
:103CB00037F0E552E55265D0070E0001651502E1C7
:103CC0006AD844D0040EE66EE66A750E006E7A0E6F
:103CD000016E026A00C0E6FF01C0E6FF02C0E6FF17
:103CE000010EE66E020EE66E8FD9036E070EE15EE0
:103CF0000350000926E1D950090FE66E000EDA20C4
:103D0000E66EE40EE66E010EE66E020EE66EFE0E46
:103D1000E66EE66A4BEC32F0006E070EE15E005094
:103D20000A0EE66EE66AA0EC37F0E552E5526592BF
:103D3000656A640EE66EE66AA0EC37F0E552E5527D
:103D4000FF000201010E406F40C243F31AD002018E
:103D5000800E406F40C243F35E0E006E7A0E016E1D
:103D6000026A00C0E6FF01C0E6FF02C0E6FF420EA5
:103D7000E66E020EE66EDDEC3BF0036E050EE15ED4
:103D80000350200EE15C02E2E16AE552E16EE55289
:103D9000E7CFD9FF12000201100E406F0301436FFD
:103DA000570E006E7A0E016E026A00C0E6FF01C077
:103DB000E6FF02C0E6FF420EE66E020EE66EDDECA6
:103DC0003BF0036E050EE15E03501200D9CFE6FF13
:103DD000E1CFD9FF070EE126690EF36E020EF3CF95
:103DE000DBFFFC0EDBCF28F0FD0EDBCF29F0030E4E
:103DF00028C0DBFF040E29C0DBFFFE0EDB50480DA0
:103E0000F3CF00F0F4CF01F0900E0026170E012240
:103E1000050E00C0DBFF060E01C0DBFFD950010F0D
:103E2000E66E000EDA20E66E400EE66E030EE66EDB
:103E3000010EE66E050EDBCFE6FF060EDBCFE6FFDA
:103E400084EC32F0006E070EE15E0050D950010F95
:103E5000E66E000EDA20E66E490EE66E030EE66EA2
:103E60001A0EE66E010EE76E050EDBCF00F0060EB1
:103E7000DBCF01F0E7500026000E012200C0E6FF74
:103E800001C0E6FF84EC32F0026E070EE15E0250E4
:103E9000D950010FE66E000EDA20E66E420EE66E95
:103EA000030EE66E010EE66E1B0EE76E050EDBCF0F
:103EB00000F0060EDBCF01F0E7500026000E0122D5
:103EC00000C0E6FF01C0E6FF84EC32F0026E070E90
:103ED000E15E0250D950010FE66E000EDA20E66E68
:103EE000450EE66E030EE66E040EE66E1C0EE76EE1
:103EF000050EDBCF00F0060EDBCF01F0E750002609
:103F0000000E012200C0E6FF01C0E6FF84EC32F0A3
:103F1000026E070EE15E0250D950010FE66E000EF0
:103F2000DA20E66EFC0EDBCFE6FFFD0EDBCFE6FF10
:103F3000240EE66EE76E050EDBCF00F0060EDBCF3B
:103F400001F0E7500026000E012200C0E6FF01C08C
:103F5000E6FF84EC32F0026E070EE15E0250DF6A8B
:103F6000240EDF5C16E2DF50E76E030EDBCFE9FFC5
:103F7000040EDBCFEAFFE750E926000EEA22020E2C
:103F8000DBCFE7FFEF50E71A020EE7CFDBFFDF2AB8
:103F9000E7D7020EDBCFE7FF03014051E71A020E1D
:103FA000E7CFDBFFDB500301425D04E0900EF36ED0
:103FB000F46A03D0F36AF46A00D0070EE15C02E20F
:103FC000E16AE552E16EE552E7CFD9FF1200D9CFA1
:103FD000E6FFE1CFD9FFFE0EDBCF6BF0FD0EDBCFAE
:103FE0006FF0FC0EDBCF70F0FB0EDBCF71F0370E05
:103FF000796E800EBA6EBB6A8B808B9200016E6BFD
:10400000E552E7CFD9FF1200D9CFE6FFE1CFD9FFC4
:10401000020EE126DE6ADD6ADECF00F0DDCF01F0C0
:10402000F80EDBCF02F0F90EDBCF03F001500318DE
:10403000E8AE02D0033404D00250005C03500158B3
:1040400033E2FD0EDBCF01F0FE0EDBCF02F0DE50DF
:104050000124E96EDD500220EA6EEFCF00F0DECFE2
:1040600003F0DDCF04F0056A04BE0568D950FA0FED
:10407000E96EFF0EDA20EA6EEE500324F36EEE5086
:104080000420F46EEE500520F86EF4CFF7FFF3CF66
:10409000F6FF0800F550005C02E0010E07D0DF2AB1
:1040A000010E01E3DB2AB8D7000E00D0006E020E2D
:1040B000E15C02E2E16AE552E16E0050E552E7CFD1
:1040C000D9FF1200D9CFE6FFE1CFD9FF040EE126D8
:1040D00000018E6B8F6B03010845010B0001D86F47
:1040E0003F0E03010817000ED8800755000E085533
:1040F00001E3A9D0040E0001D890863787378837AE
:104100008937E806F9E107C304F008C305F0066A39
:10411000076A006AB00E016E710E026E0B0E036E1E
:1041200000C026F001C027F002C028F003C029F02B
:1041300004C02BF005C02CF006C02DF007C02EF0F7
:1041400099EC3DF026C094F027C095F028C096F079
:1041500029C097F094C000F095C001F096C002F01D
:1041600097C003F0020ED8900332023201320032BF
:10417000E806F9E100C0DFFF010E01C0DBFF020E1F
:1041800002C0DBFF030E03C0DBFFD9CFE9FFDACFAC
:10419000EAFF00018651EE5C8751EE588851EE58D7
:1041A0008951EE580BE2DF50865F010EDB50875BD2
:1041B000020EDB50885B030EDB50895B86C026F065
:1041C00087C027F088C028F089C029F094C02BF060
:1041D00095C02CF096C02DF097C02EF099EC3DF0D4
:1041E00026C08EF027C08FF0010E00018E27000E32
:1041F0008F238EC000F08FC001F0026A036A94C062
:1042000026F095C027F096C028F097C029F000C08E
:104210002BF001C02CF002C02DF003C02EF061EC99
:104220003DF022C086F023C087F024C088F025C06E
:1042300089F0040E0001D8908933883387338633A0
:10424000E806F9E102D00001D86B040EE15C03E25C
:1042500000D0E16AE552E16EE552E7CFD9FF1200E6
:104260000C0EE66EE66A090EE66E030EE66E420E70
:10427000E66E020EE66E38EC3BF0006E060EE15E76
:10428000005000C34EF201C34FF202C350F21200BD
:10429000D9CFE6FFE1CFD9FFE652636A626A0F0128
:1042A000160E396F9F0E376F7B0E366F658C386B2D
:1042B000010EE66EE66AE66A270EE66E0F0EE66E01
:1042C00086EC3BF0006E050EE15E0050659CDF6AF7
:1042D000DF50006E016A080E005C000E015810E20B
:1042E000DF50040DF3CFE9FFF4CFEAFF000EE9261B
:1042F000040EEA22EE6AEE6AEE6AEE6ADF2AE8D778
:104300000F01160E266F62A602D06296FCD701013D
:10431000C76BCC6BCD6BCE6B6598080EBF6F040E70
:10432000C06FB56BB46BE552E552E7CFD9FF120011
:10433000D9CFE6FFE1CFD9FFE6520101B40509E18B
:1043400065BA07D0626A0F01368136890101020E13
:10435000B46F6250040B06E00F013651040B02E00B
:104360006294BED865A202D0A19888D06250010B99
:1043700013E00F013651010B0FE08ADF0101040E3B
:10438000B46F0401200E026F040E036F400E016F24
:10439000006B8C0E001362906250100B06E00F0150
:1043A0003651100B02E089D862986250400B14E03D
:1043B0000F013651400B10E0010EE66EE66A000E6A
:1043C000E66EE66A730EE66EE66A3BEC2EF0006E71
:1043D000060EE15E0050629C6250200B05E00F016A
:1043E0003651200B01E04FD86250020B14E00F0150
:1043F0003651020B10E0010EE66EE66A000EE66E24
:10440000E66AE6687F0EE66E3BEC2EF0006E060E66
:10441000E15E0050636A040E0101E76EB419E8AE74
:1044200002D0E73402D0E750B45D02E2A19826D072
:104430000F0136A722D0DF6A040EDF5C1EE262A6FF
:104440001BD064CFD4F16296780E0101D41502E13D
:104450005DD810D0000EE66EE66AD40EE66E010E50
:10446000E66E720EE66EE66A3BEC2EF0006E060E0D
:10447000E15E0050DF2AE0D700D0A198E552E55276
:10448000E7CFD9FF12000F0126A115D0B7C1E9FF70
:10449000B8C1EAFFEF5080080DE1BFC1E9FFC0C11C
:1044A000EAFFEF50840806E1B7C1E9FFB8C1EAFFAF
:1044B0008C0EEF6E2691629A12000F01368562987B
:1044C0006582000EE66EE66AE66EE66A750EE66ED8
:1044D000E66A3BEC2EF0006E060EE15E0050120024
:1044E000000EE66EE66AE66EE66A740EE66EE66A50
:1044F0003BEC2EF0006E060EE15E005065920F015F
:10450000369562A402D06294FCD71200D9CFE6FFA0
:10451000E1CFD9FFE652FD0E0101D4155AE17E0E1E
:10452000D415E8407F0B040DF3CFB7F1F4CFB8F109
:10453000000EB727040EB823B7C1B9F1B8C1BAF15C
:10454000B975B7C1E9FFB8C1EAFFEF503C0BE842CB
:10455000E8420D083CE1B7C1E9FFB8C1EAFF020E2D
:10456000E926000EEA22EECF00F0EFCF01F0280E90
:10457000001802E1040E011828E1B7C1E9FFB8C133
:10458000EAFF020EE926000EEA22200EEE6E040E6D
:10459000ED6EDF6ADF50006E016A080E005C000EEF
:1045A000015813E2DF50EA6A280FE96E040EEA228E
:1045B000EF50E66EDF50EA6A200FE96E040EEA2241
:1045C000E552E750EF6EDF2AE5D70DD801D02ED89F
:1045D00005D0FD0ED415040801E14ED8E552E55290
:1045E000E7CFD9FF1200BFC1E9FFC0C1EAFFEF501A
:1045F000800B05E0BFC1E9FFC0C1EAFFEF6A01011E
:10460000C36BC46BC86BC96BC76BB9D8000EE66EC1
:10461000E66AE66EE66A030EE66EE66A3BEC2EF0AC
:10462000006E060EE15E005080EF25F0020E0101E3
:10463000C45D02E1C5DB1FD06FD80101D5511AE17D
:10464000B9C1E9FFBAC1EAFFEE52400EEF6EB9C13F
:10465000E9FFBAC1EAFF020EE926000EEA22200EA7
:10466000EE6E040EED6EB9C1E9FFBAC1EAFF8C0E21
:10467000EF6E01D0D56B1200D9CFE6FFE1CFD9FFA5
:10468000E652BFC1E9FFC0C1EAFFEF50400B01E0B5
:10469000010EDF6E0101BF75080EB45D0DE122C48D
:1046A00038FF0F013851000804E20101100EB46F09
:1046B00003D00101040EB46FC40528E1BFC1E9FFB6
:1046C000C0C1EAFF020EE926000EEA22280EEE6EB5
:1046D000040EED6EEADA020E0101C35D07E1BFC10F
:1046E000E9FFC0C1EAFF840EEF6E0FD0DF5007E193
:1046F000BFC1E9FFC0C1EAFFC80EEF6E06D0BFC15F
:10470000E9FFC0C1EAFF880EEF6E01D005D8E5527F
:10471000E552E7CFD9FF1200D9CFE6FFE1CFD9FFAD
:10472000020EE1260101C46BBFC1E9FFC0C1EAFF6F
:10473000EF6A040EBF19006EC0C101F000C0DEFFB9
:1047400001C0DDFFDECFE9FFDDCFEAFFEF6ACCAFCE
:104750000CD0CF51D01107E005D0D0C1FAFF010134
:10476000CF51F96EFADF0101CC9F020EE15C02E24B
:10477000E16AE552E16EE552E7CFD9FF120004018C
:104780002051600BE842E842E842E842E842000972
:1047900001E058D021510C0A54E00B0A43E00C0A06
:1047A00035E0010A26E00B0A22E0020A20E0030AB3
:1047B0001CE0080A10E0010A0CE00F0A08E0030AF6
:1047C00001E03FD00101C78F080EB46F3BD0C7D8BE
:1047D00039D094DB37D00101B50EC56F010EC66F1D
:1047E000C781010EC86FC78F2DD029D92BD02BD8E8
:1047F00029D024510101C56FC66BB60EC527010E25
:10480000C623C781010EC86FC78F1CD00101C78F97
:1048100004012451EA6AB60FE96E010EEA2222C4AD
:10482000EFFF10D0000EE66EE66AE66EE66A020E54
:10483000E66EE66A3BEC2EF0006E060EE15E00507E
:1048400001D000D01200D9CFE6FFE1CFD9FF040E8E
:10485000E1260401220510E120511F0B00090CE1A3
:104860000101C78F030E0401215D04E10101010E66
:10487000D36F02D00101D36B0401225166E12051B4
:104880001F0B020862E124510F0B00095EE00101D9
:10489000C78F040124BF10D024510F0BE96EEA6AC0
:1048A000D890E936EA36BB0EE926010EEA22EECFB1
:1048B000DEFFEDCFDDFF0FD024510F0BE96EEA6A6A
:1048C000D890E936EA36BF0EE926010EEA22EECF8D
:1048D000DEFFEDCFDDFF030E215D07E1DECFE9FF57
:1048E000DDCFEAFF840EEF6E30D024510F0B016A4A
:1048F000260F006E0F0E0122020E00C0DBFF030E1A
:1049000001C0DBFF020EDBCFE9FF030EDBCFEAFFC6
:10491000EF9024AF0DD0DECFE9FFDDCFEAFFEF6AE5
:10492000DF74DECFE9FFDDCFEAFF400EEF6E0DD082
:10493000DECFE9FFDDCFEAFF880EEF6EDF74DECF5A
:10494000E9FFDDCFEAFFC80EEF6E040EE15C02E284
:10495000E16AE552E16EE552E7CFD9FF1200800E21
:104960000401205D6BE10101C00EC76F04012351FA
:10497000030A2EE0010A0EE0030A03E00101C76BFF
:104980005DD00101CA0EC56F780EC66F120EC86FDA
:10499000C96B54D02251F66EF76AD890F636F736C6
:1049A0007C0EF626790EF7220900F5CFC5F10A0034
:1049B000F5CFC6F1020E0101F76AC525F66EC651A4
:1049C000F7220900F5CFC8F10A00F5CFC9F136D0BA
:1049D000030E225D30E20001675112E10401225111
:1049E000F66EF76AD890F636F7367E0EF626790E12
:1049F000F7220900F5CFC5F10A00F5CFC6F111D0B5
:104A000004012251F66EF76AD890F636F736840E16
:104A1000F626790EF7220900F5CFC5F10A00F5CF89
:104A2000C6F1C5C1F6FFC6C1F7FF0800F550010188
:104A3000C86FC96B02D00101C76B00D01200D9CF7B
:104A4000E6FFE1CFD9FF020EE1260401286B296BB6
:104A500020511F0B020A12E0030A0DE0010A01E0D7
:104A60003BD00101C78F040128810101D30502E178
:104A70000401288331D00101C78F2ED00101C78FD7
:104A8000040124BF10D024510F0BE96EEA6AD890BC
:104A9000E936EA36BB0EE926010EEA22EECFDEFF4A
:104AA000EDCFDDFF0FD024510F0BE96EEA6AD890ED
:104AB000E936EA36BF0EE926010EEA22EECFDEFF26
:104AC000EDCFDDFFDECFE9FFDDCFEAFFEF50040BD6
:104AD00002E0010E286F00D00101C7AF07D0280EF9
:104AE000C56F040EC66FC781020EC86F020EE15C6F
:104AF00002E2E16AE552E16EE552E7CFD9FF12002A
:104B000065980101C7BF4AD0CCAF28D0020EC46F50
:104B1000BFC1E9FFC0C1EAFFEE52EF6ABFC1E9FFC2
:104B2000C0C1EAFFC80EEF6EB9C1E9FFBAC1EAFF22
:104B3000EE52400EEF6EB9C1E9FFBAC1EAFF020EB4
:104B4000E926000EEA22280EEE6E040EED6EB9C1C3
:104B5000E9FFBAC1EAFFC80EEF6E1FD0B9C1E9FF85
:104B6000BAC1EAFFEE52400EEF6EB9C1E9FFBAC119
:104B7000EAFF020EE926000EEA22200EEE6E040E77
:104B8000ED6EB9C1E9FFBAC1EAFF8C0EEF6EBFC18D
:104B9000E9FFC0C1EAFF840EEF6E86D0CCBF84D09F
:104BA000040120AF59D00101C8510401265D010163
:104BB000C9510401275904E226C4C8F127C4C9F128
:104BC00074D80101010EC46FB9C1E9FFBAC1EAFF8F
:104BD000EE52400EEF6EB9C1E9FFBAC1EAFF020E14
:104BE000E926000EEA22200EEE6E040EED6EB9C12B
:104BF000E9FFBAC1EAFF800EEF6ED56BB7C1E9FFDE
:104C0000B8C1EAFFEE52400EEF6EB7C1E9FFB8C17E
:104C1000EAFF020EE926000EEA22200EEE6E040ED6
:104C2000ED6EB7C1E9FFB8C1EAFF840EEF6E010E69
:104C3000D56FBFC1E9FFC0C1EAFF020EE926000E31
:104C4000EA22280EEE6E040EED6EBFC1E9FFC0C170
:104C5000EAFFC80EEF6E28D00101020EC46FBFC17B
:104C6000E9FFC0C1EAFFEE52EF6ABFC1E9FFC0C170
:104C7000EAFFC80EEF6EB9C1E9FFBAC1EAFFEE5212
:104C8000400EEF6EB9C1E9FFBAC1EAFF020EE92694
:104C9000000EEA22280EEE6E040EED6EB9C1E9FF99
:104CA000BAC1EAFFC80EEF6E1200D9CFE6FFE1CF1E
:104CB000D9FF020EE1260101400EC85D000EC95960
:104CC0000EE2C8C1DEFFC9C1DDFFC35103E1010E21
:104CD000C36F04D0C30502E1020EC36F03D0400EC0
:104CE000DE6EDD6ABFC1E9FFC0C1EAFFEF92BFC15E
:104CF000E9FFC0C1EAFFEF90BFC1E9FFC0C1EAFF11
:104D0000010EDB50EF12BFC1E9FFC0C1EAFFEE5256
:104D1000DFCFEFFF000EDB50C85F010EDB50C95B39
:104D2000280ED16F040ED26FC7B121D0D9CFE9FFC1
:104D3000DACFEAFFEE50ED1019E0C5C1F6FFC6C1AB
:104D4000F7FFC52B000EC6230800F550E66ED1C153
:104D5000E9FFD2C1EAFFD12B000ED223E552E75082
:104D6000EF6EDF06010E01E2DB06E0D71FD0D9CFE0
:104D7000E9FFDACFEAFFEE50ED1018E0C5C1E9FF18
:104D8000C6C1EAFFC52B000EC623EF50E66ED1C1A7
:104D9000E9FFD2C1EAFFD12B000ED223E552E75042
:104DA000EF6EDF06010E01E2DB06E1D7020EE15CE9
:104DB00002E2E16AE552E16EE552E7CFD9FF120067
:104DC000D9CFE6FFE1CFD9FF020EE126B7C1E9FF57
:104DD000B8C1EAFFEE52EFCFDFFFDFCF00F00050A7
:104DE0000101CD5D000ECE5903E2CDC1DFFF09D038
:104DF000DF50006E016A0050CD5DCD6F0150CE597D
:104E0000CE6F010EDB6ADF50F36E010EDBCFF4FFD5
:104E1000F350F45C16E2010EDB50EA6A280FE96EEB
:104E2000040EEA22EF50E66ECAC1E9FFCBC1EAFFE9
:104E3000CA2B000ECB23E552E750EF6E010EDB2AA2
:104E4000E2D7000ED880CD55000ECE5528E2B9C16C
:104E5000E9FFBAC1EAFFEE52400EEF6EB9C1E9FFB9
:104E6000BAC1EAFF020EE926000EEA22280EEE6E13
:104E7000040EED6EB7C1E9FFB8C1EAFFEF50400B79
:104E800007E1B9C1E9FFBAC1EAFFC80EEF6E06D06B
:104E9000B9C1E9FFBAC1EAFF880EEF6E25D0B9C1EA
:104EA000E9FFBAC1EAFFEE52400EEF6EB9C1E9FF69
:104EB000BAC1EAFF020EE926000EEA22200EEE6ECB
:104EC000040EED6EB9C1E9FFBAC1EAFF840EEF6EC0
:104ED000CF51D01107E005D0D0C1FAFF0101CF5169
:104EE000F96EFADF0101CC9F020EE15C02E2E16A99
:104EF000E552E16EE552E7CFD9FF1200D9CFE6FFC8
:104F0000E1CFD9FFE6520101C78F010EE66EE66AD6
:104F1000E66A270EE66E0F0EE66E86EC3BF0006E3C
:104F2000050EE15E0050DF6ADF50006E016A080E78
:104F3000005C000E015810E2DF50040DF3CFE9FFD2
:104F4000F4CFEAFF000EE926040EEA22EE6AEE6ACA
:104F5000EE6AEE6ADF2AE8D7658C010EE66EE66A35
:104F6000E66AB60EE66E010EE66E86EC3BF0006E6B
:104F7000050EE15E0050659C0101080EBF6F040E36
:104F8000C06F000EB76F040EB86FB7C1B9F1B8C1EA
:104F9000BAF122C4B5F1B55103E1100EB46F12D0CD
:104FA000200EB46F010EE66EE66AB50EE66E010ED7
:104FB000E66E010EE66EE66A3BEC2EF0006E060E23
:104FC000E15E0050E552E552E7CFD9FF1200D9CF9C
:104FD000E6FFE1CFD9FF020EE126000EDE6E040EE1
:104FE000DD6EFD0EDB50E824026EFE0EDB50040D7C
:104FF000F3500224040DF350006E016A020E0F0BF1
:1050000005E0D89001320032E806FBE1D890003686
:105010000136D89000360136D9CFE9FFDACFEAFF62
:105020000050EE260150ED22DECFE9FFDDCFEAFF92
:10503000EF9EFD0EDB500FE1FE0EEA6ADB34FE0B45
:10504000EA36E96EBB0EE926010EEA22DECFEEFF5C
:10505000DDCFEDFF0ED0FE0EEA6ADB34FE0BEA3642
:10506000E96EBF0EE926010EEA22DECFEEFFDDCFAC
:10507000EDFFDECFE9FFDDCFEAFFEF9CDECFE9FFFA
:10508000DDCFEAFF040EE926000EEA22EF8C020EC5
:10509000E15C02E2E16AE552E16EE552E7CFD9FF59
:1050A0001200D9CFE6FFE1CFD9FF020EE126FE0EB6
:1050B000DB50016A260F006E0F0E012200C0DEFFDA
:1050C00001C0DDFFDECFE9FFDDCFEAFFFD0EDBCF64
:1050D000EFFFDBA407D0E66AFE0EDBCFE6FF77DF4B
:1050E000E552E552FD0EDBA208D0010EE66EFE0E83
:1050F000DBCFE6FF6CDFE552E552020EE15C02E237
:10510000E16AE552E16EE552E7CFD9FF1200D9CF4F
:10511000E6FFE1CFD9FF020EE126FE0EDB5020E1D3
:10512000B9C1E9FFBAC1EAFFEE52400EEF6EB9C154
:10513000E9FFBAC1EAFF020EE926000EEA22200EBC
:10514000EE6E040EED6EB9C1E9FFBAC1EAFF8C0E36
:10515000EF6EBFC1E9FFC0C1EAFF840EEF6E3DD024
:10516000FD0EDB50E824026EFE0EDB50040DF35002
:105170000224040DF3CF00F0F4CF01F0000E00265E
:10518000040E012200C0DEFF01C0DDFF840E006EB0
:10519000DECFE9FFDDCFEAFF0050EF12FD0EDB505E
:1051A000E824026EFE0EDB50040DF3500224010FC2
:1051B000040DF3CF00F0F4CF01F0000E0026040E32
:1051C000012200C0DEFF01C0DDFF840E006EDECFD5
:1051D000E9FFDDCFEAFF0050EF12020EE15C02E2D0
:1051E000E16AE552E16EE552E7CFD9FF1200D9CF6F
:1051F000E6FFE1CFD9FF020EE126FD0EDB500FE006
:10520000FE0EEA6ADB34FE0BEA36E96EBF0EE926D3
:10521000010EEA22EECFDEFFEDCFDDFF0ED0FE0E57
:10522000EA6ADB34FE0BEA36E96EBB0EE926010EB4
:10523000EA22EECFDEFFEDCFDDFFDECFE9FFDDCFEF
:10524000EAFF020EE926000EEA22FB0EDBCFEEFF9C
:10525000FC0EDBCFEDFFDECFE9FFDDCFEAFFEE5244
:10526000FA0EDBCFEFFF400E006EDECFE9FFDDCFA1
:10527000EAFF0050EF16880E006EDECFE9FFDDCFAB
:10528000EAFF0050EF12FD0EDB500CE0FE0EEA6A62
:10529000DB34FE0BEA36E96EBF0EE926010EEA2288
:1052A000EF740BD0FE0EEA6ADB34FE0BEA36E96ED1
:1052B000BB0EE926010EEA22EF74DECF00F0DDCF4F
:1052C00001F000C0F3FF01C0F4FF020EE15C03E255
:1052D00000D0E16AE552E16EE552E7CFD9FF120056
:1052E000D9CFE6FFE1CFD9FF65A84ED0FE0EEA6A1E
:1052F000DB34FE0BEA36E96EBF0EE926010EEA2228
:10530000EE50EFCFEAFFE96E400EEE16EE6AEE6A5F
:10531000EE6AFE0EEA6ADB34FE0BEA36E96EBF0E79
:10532000E926010EEA22EE50EFCFEAFFE96EEE7CAD
:10533000FE0EEA6ADB34FE0BEA36E96EBF0EE926A2
:10534000010EEA22EF74400E006EFE0EEA6ADB34B4
:10535000FE0BEA36E96EBF0EE926010EEA22EE5098
:10536000EFCFEAFFE96E0050EF16FE0EEA6ADB347B
:10537000FE0BEA36E96EBF0EE926010EEA22EE5078
:10538000EFCFEAFFE96EEF7CE552E7CFD9FF1200DD
:1053900006D0656A0F01366B0101B46B00D01200B4
:1053A0000101B45114E1656A0F01366B160E396FB5
:1053B0009F0E376F7B0E366FD08EA288A088F28E3C
:1053C00065B602D06586FCD70101010EB46F1200EC
:1053D000DACFE4FFE2CFDAFFE9CFE4FFEACFE4FF80
:1053E000F6CFE4FFF7CFE4FFF5CFE4FFF3CFE4FF20
:1053F000F4CFE4FFFACFE4FF00EE20F0140EE8044F
:1054000003E3EECFE4FFFBD700EE00F0200EE8044C
:1054100003E3EECFE4FFFBD7E65298EC21F0E55230
:1054200000EE1FF0200EE80403E3E5CFEDFFFBD70D
:1054300000EE33F0140EE80403E3E5CFEDFFFBD7F5
:10544000E5CFFAFFE5CFF4FFE5CFF3FFE5CFF5FFBA
:10545000E5CFF7FFE5CFF6FFE5CFEAFFE5CFE9FFC0
:10546000E5CFDAFF1100D8CFE4FFE0CFE4FFE46E30
:10547000DACFE4FFE2CFDAFFE652E552E5CFDAFF1A
:10548000E550E5CFE0FFE5CFD8FF1000D9CFE6FF2C
:10549000E1CFD9FF080EE126010EF36E070EF3CF20
:1054A000DBFF0001656B0301436B0001666BC1D933
:1054B000A0EC3AF0140EE66EE66A490EE66E030EB4
:1054C000E66E200EE66E180EE66E71D9006E060EC0
:1054D000E15E00502C0E8014E840E8403F0BE76E80
:1054E000060EE7CFDBFFF00E03014915006E060E36
:1054F000DB500B0A00100001606F0F0E03014A150C
:105500000001616F4BC362F04CC363F0D950050FCB
:10551000E66E000EDA20E66E680EE66E000EE66EAF
:10552000010EE66E360EE66EE66A28EC32F0006E8C
:10553000070EE15E0050010EE66E600EE66E160E7E
:10554000E66ED8D9E552E552E552000903E00001C4
:10555000658903D0030E00016513D950050FE66E6F
:10556000000EDA20E66ED950060FE66E000EDA2045
:10557000E66E010EE66E410EE66EE66A28EC32F04B
:10558000006E070EE15E0050060EDB50FF081AE1C8
:105590000001676B010E646F280E006E7A0E016EBB
:1055A000026A00C0E6FF01C0E6FF02C0E6FFB50EDA
:1055B000E66E030EE66EDDEC3BF0036E050EE15E7B
:1055C00003501AD00001010E676F020E646F340E93
:1055D000006E7A0E016E026A00C0E6FF01C0E6FFAF
:1055E00002C0E6FFB50EE66E030EE66EDDEC3BF0A4
:1055F000036E050EE15E0350D950050FE66E000EF6
:10560000DA20E66ED950060FE66E000EDA20E66E5E
:10561000010EE66E400EE66EE66A28EC32F0006E91
:10562000070EE15E0050060EDB0415E10001010EDD
:10563000666FE66A440EE66EE66A5CD9E552E552AC
:10564000E552000903E00001658B05D0060EDB047E
:1056500002E100016585D950050FE66E000EDA20E3
:10566000E66E390EE66E030EE66E020EE66E8E0EE6
:10567000E66E170EE66E84EC32F0006E070EE15E09
:1056800000500301140ED8803955000E3A5510E22F
:10569000800EE66E030EE66EE66E010EE66EE7EC39
:1056A0001FF0E552E552E552E5520301920E436FB9
:1056B000010EDB6A020EDB6A010EDBCF00F0020E88
:1056C000DBCF01F0D890015004E6030E005C000E21
:1056D000015811E2010EDBCFE9FF020EDBCFEAFF3A
:1056E000000EE926030EEA22EF6A010EDB2A020E03
:1056F00001E3DB2AE1D703013D6B3C6B00016651FE
:105700002DE08D0EE66E030EE66EE66AE6EC1EF008
:10571000E552E552E552F3CF00F0F4CF01F000502E
:1057200001100CE103014051026E036A800E021861
:1057300001E1035003E1010E3C6F10D0800EE66ED4
:10574000030EE66EE66E010EE66EE7EC1FF0E55224
:10575000E552E552E5520301910E436F40C341F318
:1057600003013B6B010E3F6F690EE66E030EE66EA2
:105770003FC3E6FFE6EC1EF0E552E552E552F3CFFB
:1057800000F0F4CF01F00050011003E10301010E1D
:105790003B6FD0EC29F024D9FED7080EE15C02E281
:1057A000E16AE552E16EE552E7CFD9FF1200D9CFA9
:1057B000E6FFE1CFD9FF020EE126DE6ADD6ADECF29
:1057C00000F0DDCF01F0F90EDBCF02F0FA0EDBCFF7
:1057D00003F00250005C0350015821E2FD0EDBCFC4
:1057E00000F0FE0EDBCF01F0DE500024F66EDD503F
:1057F0000120F76EF86A0800FB0EDBCF00F0FC0E0C
:10580000DBCF01F0DE500024E96EDD500120EA6EAE
:10581000F5CFEFFFDF2A010E01E3DB2AD0D7020E1E
:10582000E15C02E2E16AE552E16EE552E7CFD9FFC1
:105830001200D9CFE6FFE1CFD9FF020EE1260F0E0D
:10584000C112580EDE6E020EDD6E9B8CDFCF00F0B3
:10585000DF06010EDBCF01F001E2DB060050011094
:1058600001E0F4D70F01486949690CD848EC21F0F0
:10587000020EE15C02E2E16AE552E16EE552E7CF39
:10588000D9FF1200D9CFE6FFE1CFD9FF030EE12601
:1058900092680F01FD0E486F050EC26EA20EC16E1A
:1058A000FE0E936E8A80810E8B6E3C0E946E0E01FE
:1058B0000F0ED16F0E0ED26F060ECA6E370E796EB6
:1058C000A19200016E6B6D6B020E6C6F6B6B170E0D
:1058D0006F6F030E706F71690101E66BE76BE86B28
:1058E000E96BE15C02E2E16AE552E16EE552E7CF85
:1058F000D9FF1200D9CFE6FFE1CFD9FF0B0EE12689
:10590000FC0EDB501FE0D950080FE66E000EDA20C7
:10591000E66ED9CFE6FFDACFE6FF080EE66EFD0EA3
:10592000DBCFE6FFFE0EDBCFE6FF84EC32F0006E4D
:10593000070EE15E0050090EF3CFDBFF0A0EF4CF35
:10594000DBFF1ED0D950080FE66E000EDA20E66E9F
:10595000D9CFE6FFDACFE6FF080EE66EFD0EDBCF0D
:10596000E6FFFE0EDBCFE6FF28EC32F0006E070EFE
:10597000E15E0050090EF3CFDBFF0A0EF4CFDBFF30
:10598000D950090FE96EDACFEAFFEE50ED1003E0CF
:10599000090EDB5019D0080EE66EE66A790E006E2D
:1059A0007A0E016E026A00C0E6FF01C0E6FF02C087
:1059B000E6FFD9CFE6FFDACFE6FF04EC20F0036E76
:1059C000070EE15E035000D0006E0B0EE15C02E2B8
:1059D000E16AE552E16E0050E552E7CFD9FF1200CF
:1059E00058D8200E0101E76EB419E8AE02D0E734B2
:1059F00002D0E750B45D03E36550020B01E048D0EC
:105A00000101E651E71102E1000E08D0E6C1E9FF0D
:105A1000E7C1EAFFEF50800B01E0010E000938E119
:105A200027EC0CF00101E851E91102E1000E08D069
:105A3000E8C1E9FFE9C1EAFFEF50800B01E0010E88
:105A4000000913E1400EE66E400EE66E020EE66EB1
:105A5000010EE66EE66EF7EC28F0006E050EE15ED4
:105A60000050F3CFE8F1F4CFE9F1400EE66E000EFE
:105A7000E66E020EE66EE66A010EE66EF7EC28F0C0
:105A8000006E050EE15E0050F3CFE6F1F4CFE7F1D2
:105A90001200D9CFE6FFE1CFD9FFE65265A205D0CB
:105AA000800EBA6E8B808B92AFD0A1A203D0A19250
:105AB00000016E2B020E0101B45D10E1460E0001E3
:105AC0006E5D0BE16CA304D08B908B926C9303D032
:105AD0008B808B826C833B0E6E6F96D00001715170
:105AE00001E192D0200E0101B45D01E08DD00001F2
:105AF0006B51050A2DE0060A1CE0010A0FE0030ABB
:105B000004E0FE0A01E080D07FD06F516E5D05E3B6
:105B10006E6B8B908B82020E6B6F76D070516E5DC8
:105B200007E36E6B8B808B9271AF7107010E6B6F09
:105B30006BD06F516E5D0BE36E6B6D6B8C0EBA6E3E
:105B4000BB6A010E6C6F050E6B6F070E796E5CD031
:105B500070516E5D58E36CA124D0010EE66EE66ACA
:105B60006D516D2B016A810F006E7A0E0122026A5F
:105B700000C0E6FF01C0E6FF02C0E6FFD9CFE6FFA6
:105B8000DACFE6FF63EC3BF0036E070EE15E0350F5
:105B9000DF50BB6E400E00016D5D02E16D6B6C91DC
:105BA00031D0010EE66EE66A3F0E036E6D516D2B2D
:105BB000035C016A810F006E7A0E0122026A00C046
:105BC000E6FF01C0E6FF02C0E6FFD9CFE6FFDACF6D
:105BD000E6FF63EC3BF0046E070EE15E0450DF501D
:105BE000BB6E400E00016D5D0DE16D6B6C81800E32
:105BF000BA6E8B808B9271AF7107030E6B6F6E6BF9
:105C0000370E796E6E6B00D0E552E552E7CFD9FFC3
:105C1000120003001200120012001200F6EF3BF017
:105C200012001E0EE66E010EE66E51EC28F0E552F3
:105C3000E552400EE66E000EE66E020EE66EE66A75
:105C4000010EE66EF7EC28F0006E050EE15E0050E6
:105C5000F3CFE6F1F4CFE7F1120065840101080EFD
:105C6000EE6F070EEF6FEE07000EEF5BEE51EF11D8
:105C7000FAE165941200D9CFE6FFE1CFD9FFFD0E1E
:105C8000DBCF28F0FE0EDBCF29F0720E281801E1E1
:105C9000295033E0E868281802E17F0E29182BE02C
:105CA000740E281801E1295024E0750E281801E12E
:105CB00029501DE0730E281801E1295016E0030E4B
:105CC000281801E129500FE0020E281801E129509F
:105CD00008E0010E281801E1295001E010D0A1DFF1
:105CE0000FD09EDF0DD09ADF0BD096DF09D091DF69
:105CF00007D091DF05D091DF03D0000001D000D0A4
:105D0000010E00D0E552E7CFD9FF1200D9CFE6FF50
:105D1000E1CFD9FFE65247EC37F00001675108E0C8
:105D2000520EE66E030EE66EA0EC37F0E552E55239
:105D300086C08AF087C08BF088C08CF089C08DF057
:105D4000030E0001D8908933883387338633E80601
:105D5000F9E1880EE66E000EE66E73EC37F0E55260
:105D6000E552F3CF88F0F4CF89F0860EE66E000E90
:105D7000E66E73EC37F0E552E552F3CF86F0F4CFE0
:105D800087F000018651871104E000018807000EAA
:105D9000895B0001AA5103E10001070EAA6F010E01
:105DA0000001AA15080DF3CFA7F0020E0001AA15F5
:105DB000E8240001A713040E0001AA15E8407F0B98
:105DC0000001A7130001AB6B0001AC910001AD6BAA
:105DD0000001A86B0001A96BDF6A030EDF5C33E2F0
:105DE000DF50040DF3CFE9FFF4CFEAFFBA0EE92646
:105DF000000EEA22EE6AEE6AEE6AEE6ADF50040DE9
:105E0000F3CFE9FFF4CFEAFF720EE926000EEA2293
:105E1000EE6AEE6AEE6AEE6ADF50040DF3CFE9FF38
:105E2000F4CFEAFFAE0EE926000EEA22EE6AEE6A31
:105E3000EE6AEE6ADF50EA6AA40FE96E000EEA220B
:105E4000EF6ADF2ACAD7F298F2949E900000080EFB
:105E5000D56ED76AD66A0000320ECD6E87C0CFFFEE
:105E600086C0CEFFF29E0001D85101E1C3D00001EF
:105E7000000ED8808E55000E8F5501E3BBD08A905E
:105E800000010E0EA76F0A0EE66EE66AA0EC37F070
:105E9000E552E55207C300F008C301F0040ED890A4
:105EA00001320032E804FBE100C0D7F0D7C0DCF0DB
:105EB00095C000F096C001F097C002F00001036A9F
